{
  "contractName": "SolnSquareVerifier",
  "abi": [
    {
      "inputs": [
        {
          "internalType": "address",
          "name": "verifierAddress",
          "type": "address"
        }
      ],
      "stateMutability": "nonpayable",
      "type": "constructor"
    },
    {
      "anonymous": false,
      "inputs": [
        {
          "indexed": true,
          "internalType": "address",
          "name": "owner",
          "type": "address"
        },
        {
          "indexed": true,
          "internalType": "address",
          "name": "approved",
          "type": "address"
        },
        {
          "indexed": true,
          "internalType": "uint256",
          "name": "tokenId",
          "type": "uint256"
        }
      ],
      "name": "Approval",
      "type": "event"
    },
    {
      "anonymous": false,
      "inputs": [
        {
          "indexed": true,
          "internalType": "address",
          "name": "owner",
          "type": "address"
        },
        {
          "indexed": true,
          "internalType": "address",
          "name": "operator",
          "type": "address"
        },
        {
          "indexed": false,
          "internalType": "bool",
          "name": "approved",
          "type": "bool"
        }
      ],
      "name": "ApprovalForAll",
      "type": "event"
    },
    {
      "anonymous": false,
      "inputs": [
        {
          "indexed": false,
          "internalType": "address",
          "name": "oldOwner",
          "type": "address"
        },
        {
          "indexed": false,
          "internalType": "address",
          "name": "newOwner",
          "type": "address"
        }
      ],
      "name": "OwnerShipTransefered",
      "type": "event"
    },
    {
      "anonymous": false,
      "inputs": [
        {
          "indexed": false,
          "internalType": "address",
          "name": "caller",
          "type": "address"
        }
      ],
      "name": "Paused",
      "type": "event"
    },
    {
      "anonymous": false,
      "inputs": [
        {
          "indexed": true,
          "internalType": "address",
          "name": "from",
          "type": "address"
        },
        {
          "indexed": true,
          "internalType": "address",
          "name": "to",
          "type": "address"
        },
        {
          "indexed": true,
          "internalType": "uint256",
          "name": "tokenId",
          "type": "uint256"
        }
      ],
      "name": "Transfer",
      "type": "event"
    },
    {
      "anonymous": false,
      "inputs": [
        {
          "indexed": false,
          "internalType": "address",
          "name": "caller",
          "type": "address"
        }
      ],
      "name": "Unpaused",
      "type": "event"
    },
    {
      "anonymous": false,
      "inputs": [
        {
          "indexed": false,
          "internalType": "address",
          "name": "from",
          "type": "address"
        },
        {
          "indexed": false,
          "internalType": "uint256",
          "name": "index",
          "type": "uint256"
        }
      ],
      "name": "solutionAdded",
      "type": "event"
    },
    {
      "inputs": [
        {
          "internalType": "bytes32",
          "name": "_myid",
          "type": "bytes32"
        },
        {
          "internalType": "string",
          "name": "_result",
          "type": "string"
        }
      ],
      "name": "__callback",
      "outputs": [],
      "stateMutability": "nonpayable",
      "type": "function"
    },
    {
      "inputs": [
        {
          "internalType": "bytes32",
          "name": "_myid",
          "type": "bytes32"
        },
        {
          "internalType": "string",
          "name": "_result",
          "type": "string"
        },
        {
          "internalType": "bytes",
          "name": "_proof",
          "type": "bytes"
        }
      ],
      "name": "__callback",
      "outputs": [],
      "stateMutability": "nonpayable",
      "type": "function"
    },
    {
      "inputs": [
        {
          "internalType": "address",
          "name": "to",
          "type": "address"
        },
        {
          "internalType": "uint256",
          "name": "tokenId",
          "type": "uint256"
        }
      ],
      "name": "approve",
      "outputs": [],
      "stateMutability": "nonpayable",
      "type": "function"
    },
    {
      "inputs": [
        {
          "internalType": "address",
          "name": "owner",
          "type": "address"
        }
      ],
      "name": "balanceOf",
      "outputs": [
        {
          "internalType": "uint256",
          "name": "",
          "type": "uint256"
        }
      ],
      "stateMutability": "view",
      "type": "function",
      "constant": true
    },
    {
      "inputs": [
        {
          "internalType": "uint256",
          "name": "tokenId",
          "type": "uint256"
        }
      ],
      "name": "getApproved",
      "outputs": [
        {
          "internalType": "address",
          "name": "",
          "type": "address"
        }
      ],
      "stateMutability": "view",
      "type": "function",
      "constant": true
    },
    {
      "inputs": [],
      "name": "getBaseTokenURI",
      "outputs": [
        {
          "internalType": "string",
          "name": "",
          "type": "string"
        }
      ],
      "stateMutability": "view",
      "type": "function",
      "constant": true
    },
    {
      "inputs": [],
      "name": "getContractOwner",
      "outputs": [
        {
          "internalType": "address",
          "name": "owner",
          "type": "address"
        }
      ],
      "stateMutability": "view",
      "type": "function",
      "constant": true
    },
    {
      "inputs": [],
      "name": "getName",
      "outputs": [
        {
          "internalType": "string",
          "name": "",
          "type": "string"
        }
      ],
      "stateMutability": "view",
      "type": "function",
      "constant": true
    },
    {
      "inputs": [],
      "name": "getSymbol",
      "outputs": [
        {
          "internalType": "string",
          "name": "",
          "type": "string"
        }
      ],
      "stateMutability": "view",
      "type": "function",
      "constant": true
    },
    {
      "inputs": [
        {
          "internalType": "address",
          "name": "owner",
          "type": "address"
        },
        {
          "internalType": "address",
          "name": "operator",
          "type": "address"
        }
      ],
      "name": "isApprovedForAll",
      "outputs": [
        {
          "internalType": "bool",
          "name": "",
          "type": "bool"
        }
      ],
      "stateMutability": "view",
      "type": "function",
      "constant": true
    },
    {
      "inputs": [
        {
          "internalType": "address",
          "name": "to",
          "type": "address"
        },
        {
          "internalType": "uint256",
          "name": "tokenId",
          "type": "uint256"
        }
      ],
      "name": "mint",
      "outputs": [
        {
          "internalType": "bool",
          "name": "",
          "type": "bool"
        }
      ],
      "stateMutability": "nonpayable",
      "type": "function"
    },
    {
      "inputs": [
        {
          "internalType": "uint256",
          "name": "tokenId",
          "type": "uint256"
        }
      ],
      "name": "ownerOf",
      "outputs": [
        {
          "internalType": "address",
          "name": "",
          "type": "address"
        }
      ],
      "stateMutability": "view",
      "type": "function",
      "constant": true
    },
    {
      "inputs": [
        {
          "internalType": "address",
          "name": "from",
          "type": "address"
        },
        {
          "internalType": "address",
          "name": "to",
          "type": "address"
        },
        {
          "internalType": "uint256",
          "name": "tokenId",
          "type": "uint256"
        }
      ],
      "name": "safeTransferFrom",
      "outputs": [],
      "stateMutability": "nonpayable",
      "type": "function"
    },
    {
      "inputs": [
        {
          "internalType": "address",
          "name": "from",
          "type": "address"
        },
        {
          "internalType": "address",
          "name": "to",
          "type": "address"
        },
        {
          "internalType": "uint256",
          "name": "tokenId",
          "type": "uint256"
        },
        {
          "internalType": "bytes",
          "name": "_data",
          "type": "bytes"
        }
      ],
      "name": "safeTransferFrom",
      "outputs": [],
      "stateMutability": "nonpayable",
      "type": "function"
    },
    {
      "inputs": [
        {
          "internalType": "address",
          "name": "to",
          "type": "address"
        },
        {
          "internalType": "bool",
          "name": "approved",
          "type": "bool"
        }
      ],
      "name": "setApprovalForAll",
      "outputs": [],
      "stateMutability": "nonpayable",
      "type": "function"
    },
    {
      "inputs": [
        {
          "internalType": "bool",
          "name": "pause",
          "type": "bool"
        }
      ],
      "name": "setPaused",
      "outputs": [],
      "stateMutability": "nonpayable",
      "type": "function"
    },
    {
      "inputs": [],
      "name": "squareVerifier",
      "outputs": [
        {
          "internalType": "contract SquareVerifier",
          "name": "",
          "type": "address"
        }
      ],
      "stateMutability": "view",
      "type": "function",
      "constant": true
    },
    {
      "inputs": [
        {
          "internalType": "bytes4",
          "name": "interfaceId",
          "type": "bytes4"
        }
      ],
      "name": "supportsInterface",
      "outputs": [
        {
          "internalType": "bool",
          "name": "",
          "type": "bool"
        }
      ],
      "stateMutability": "view",
      "type": "function",
      "constant": true
    },
    {
      "inputs": [
        {
          "internalType": "uint256",
          "name": "index",
          "type": "uint256"
        }
      ],
      "name": "tokenByIndex",
      "outputs": [
        {
          "internalType": "uint256",
          "name": "",
          "type": "uint256"
        }
      ],
      "stateMutability": "view",
      "type": "function",
      "constant": true
    },
    {
      "inputs": [
        {
          "internalType": "address",
          "name": "owner",
          "type": "address"
        },
        {
          "internalType": "uint256",
          "name": "index",
          "type": "uint256"
        }
      ],
      "name": "tokenOfOwnerByIndex",
      "outputs": [
        {
          "internalType": "uint256",
          "name": "",
          "type": "uint256"
        }
      ],
      "stateMutability": "view",
      "type": "function",
      "constant": true
    },
    {
      "inputs": [
        {
          "internalType": "uint256",
          "name": "tokenId",
          "type": "uint256"
        }
      ],
      "name": "tokenURI",
      "outputs": [
        {
          "internalType": "string",
          "name": "",
          "type": "string"
        }
      ],
      "stateMutability": "view",
      "type": "function",
      "constant": true
    },
    {
      "inputs": [],
      "name": "totalSupply",
      "outputs": [
        {
          "internalType": "uint256",
          "name": "",
          "type": "uint256"
        }
      ],
      "stateMutability": "view",
      "type": "function",
      "constant": true
    },
    {
      "inputs": [
        {
          "internalType": "address",
          "name": "from",
          "type": "address"
        },
        {
          "internalType": "address",
          "name": "to",
          "type": "address"
        },
        {
          "internalType": "uint256",
          "name": "tokenId",
          "type": "uint256"
        }
      ],
      "name": "transferFrom",
      "outputs": [],
      "stateMutability": "nonpayable",
      "type": "function"
    },
    {
      "inputs": [
        {
          "internalType": "address",
          "name": "newOwner",
          "type": "address"
        }
      ],
      "name": "transferOwnership",
      "outputs": [],
      "stateMutability": "nonpayable",
      "type": "function"
    },
    {
      "inputs": [
        {
          "internalType": "uint256",
          "name": "index1",
          "type": "uint256"
        },
        {
          "internalType": "address",
          "name": "address1",
          "type": "address"
        },
        {
          "internalType": "uint256[2]",
          "name": "A",
          "type": "uint256[2]"
        },
        {
          "internalType": "uint256[2][2]",
          "name": "B",
          "type": "uint256[2][2]"
        },
        {
          "internalType": "uint256[2]",
          "name": "C",
          "type": "uint256[2]"
        },
        {
          "internalType": "uint256[2]",
          "name": "INPUT",
          "type": "uint256[2]"
        }
      ],
      "name": "addSolution",
      "outputs": [],
      "stateMutability": "nonpayable",
      "type": "function"
    },
    {
      "inputs": [],
      "name": "getSolutionCount",
      "outputs": [
        {
          "internalType": "uint256",
          "name": "",
          "type": "uint256"
        }
      ],
      "stateMutability": "view",
      "type": "function",
      "constant": true
    },
    {
      "inputs": [
        {
          "internalType": "uint256[2]",
          "name": "A",
          "type": "uint256[2]"
        },
        {
          "internalType": "uint256[2][2]",
          "name": "B",
          "type": "uint256[2][2]"
        },
        {
          "internalType": "uint256[2]",
          "name": "C",
          "type": "uint256[2]"
        },
        {
          "internalType": "uint256[2]",
          "name": "INPUT",
          "type": "uint256[2]"
        },
        {
          "internalType": "uint256",
          "name": "ID",
          "type": "uint256"
        }
      ],
      "name": "mintToken",
      "outputs": [
        {
          "internalType": "bool",
          "name": "",
          "type": "bool"
        }
      ],
      "stateMutability": "nonpayable",
      "type": "function"
    }
  ],
  "bytecode": "0x60806040523480156200001157600080fd5b50604051620042d9380380620042d98339818101604052810190620000379190620003c7565b6040518060400160405280601781526020017f5265616c20457374617465204d61726b6574706c6163650000000000000000008152506040518060400160405280600381526020017f52454d00000000000000000000000000000000000000000000000000000000008152506040518060600160405280603f81526020016200429a603f9139336000806101000a81548173ffffffffffffffffffffffffffffffffffffffff021916908373ffffffffffffffffffffffffffffffffffffffff16021790555060008060146101000a81548160ff0219169083151502179055506200012f6301ffc9a760e01b6200020d60201b60201c565b620001476380ac58cd60e01b6200020d60201b60201c565b6200015f63780e9d6360e01b6200020d60201b60201c565b82600f908051906020019062000177929190620002ad565b50816010908051906020019062000190929190620002ad565b508060119080519060200190620001a9929190620002ad565b50620001c2635b5e139f60e01b6200020d60201b60201c565b50505080601460006101000a81548173ffffffffffffffffffffffffffffffffffffffff021916908373ffffffffffffffffffffffffffffffffffffffff160217905550506200045e565b63ffffffff60e01b817bffffffffffffffffffffffffffffffffffffffffffffffffffffffff191614156200024157600080fd5b6001806000837bffffffffffffffffffffffffffffffffffffffffffffffffffffffff19167bffffffffffffffffffffffffffffffffffffffffffffffffffffffff1916815260200190815260200160002060006101000a81548160ff02191690831515021790555050565b828054620002bb9062000428565b90600052602060002090601f016020900481019282620002df57600085556200032b565b82601f10620002fa57805160ff19168380011785556200032b565b828001600101855582156200032b579182015b828111156200032a5782518255916020019190600101906200030d565b5b5090506200033a91906200033e565b5090565b5b80821115620003595760008160009055506001016200033f565b5090565b600080fd5b600073ffffffffffffffffffffffffffffffffffffffff82169050919050565b60006200038f8262000362565b9050919050565b620003a18162000382565b8114620003ad57600080fd5b50565b600081519050620003c18162000396565b92915050565b600060208284031215620003e057620003df6200035d565b5b6000620003f084828501620003b0565b91505092915050565b7f4e487b7100000000000000000000000000000000000000000000000000000000600052602260045260246000fd5b600060028204905060018216806200044157607f821691505b60208210811415620004585762000457620003f9565b5b50919050565b613e2c806200046e6000396000f3fe608060405234801561001057600080fd5b50600436106101a95760003560e01c8063442890d5116100f9578063a22cb46511610097578063bdc32be011610071578063bdc32be0146104de578063c87b56dd146104fc578063e985e9c51461052c578063f2fde38b1461055c576101a9565b8063a22cb4651461048a578063b0bf8aec146104a6578063b88d4fde146104c2576101a9565b80636352211e116100d35780636352211e146103dc5780636a43afae1461040c57806370a082311461043c57806376dcf4f51461046c576101a9565b8063442890d5146103705780634c1b1c931461038e5780634f6ccce7146103ac576101a9565b806318160ddd116101665780632f745c59116101405780632f745c59146102d857806338bbfa501461030857806340c10f191461032457806342842e0e14610354576101a9565b806318160ddd1461028257806323b872dd146102a057806327dc297e146102bc576101a9565b806301ffc9a7146101ae578063081812fc146101de578063095ea7b31461020e578063150704011461022a57806316c38b3c1461024857806317d7de7c14610264575b600080fd5b6101c860048036038101906101c39190612708565b610578565b6040516101d59190612750565b60405180910390f35b6101f860048036038101906101f391906127a1565b6105e0565b604051610205919061280f565b60405180910390f35b61022860048036038101906102239190612856565b61061d565b005b610232610888565b60405161023f919061292f565b60405180910390f35b610262600480360381019061025d919061297d565b61091a565b005b61026c610a9c565b604051610279919061292f565b60405180910390f35b61028a610b2e565b60405161029791906129b9565b60405180910390f35b6102ba60048036038101906102b591906129d4565b610b3b565b005b6102d660048036038101906102d19190612b92565b610b5e565b005b6102f260048036038101906102ed9190612856565b610bba565b6040516102ff91906129b9565b60405180910390f35b610322600480360381019061031d9190612c8f565b610c34565b005b61033e60048036038101906103399190612856565b610c39565b60405161034b9190612750565b60405180910390f35b61036e600480360381019061036991906129d4565b610ccd565b005b610378610ced565b604051610385919061280f565b60405180910390f35b610396610d16565b6040516103a39190612d79565b60405180910390f35b6103c660048036038101906103c191906127a1565b610d3c565b6040516103d391906129b9565b60405180910390f35b6103f660048036038101906103f191906127a1565b610d77565b604051610403919061280f565b60405180910390f35b61042660048036038101906104219190612efb565b610db4565b6040516104339190612750565b60405180910390f35b61045660048036038101906104519190612f79565b610f4a565b60405161046391906129b9565b60405180910390f35b610474610f9a565b60405161048191906129b9565b60405180910390f35b6104a4600480360381019061049f9190612fa6565b610fa7565b005b6104c060048036038101906104bb9190612fe6565b6110dd565b005b6104dc60048036038101906104d79190613076565b611282565b005b6104e66112a8565b6040516104f3919061292f565b60405180910390f35b610516600480360381019061051191906127a1565b61133a565b604051610523919061292f565b60405180910390f35b610546600480360381019061054191906130f9565b6113f1565b6040516105539190612750565b60405180910390f35b61057660048036038101906105719190612f79565b611485565b005b600060016000837bffffffffffffffffffffffffffffffffffffffffffffffffffffffff19167bffffffffffffffffffffffffffffffffffffffffffffffffffffffff1916815260200190815260200160002060009054906101000a900460ff169050919050565b60006003600083815260200190815260200160002060009054906101000a900473ffffffffffffffffffffffffffffffffffffffff169050919050565b8173ffffffffffffffffffffffffffffffffffffffff166002600083815260200190815260200160002060009054906101000a900473ffffffffffffffffffffffffffffffffffffffff1673ffffffffffffffffffffffffffffffffffffffff1614156106bf576040517f08c379a00000000000000000000000000000000000000000000000000000000081526004016106b6906131ab565b60405180910390fd5b3373ffffffffffffffffffffffffffffffffffffffff166002600083815260200190815260200160002060009054906101000a900473ffffffffffffffffffffffffffffffffffffffff1673ffffffffffffffffffffffffffffffffffffffff16148061076557506107646002600083815260200190815260200160002060009054906101000a900473ffffffffffffffffffffffffffffffffffffffff16336113f1565b5b6107a4576040517f08c379a000000000000000000000000000000000000000000000000000000000815260040161079b90613217565b60405180910390fd5b816003600083815260200190815260200160002060006101000a81548173ffffffffffffffffffffffffffffffffffffffff021916908373ffffffffffffffffffffffffffffffffffffffff160217905550808273ffffffffffffffffffffffffffffffffffffffff166002600084815260200190815260200160002060009054906101000a900473ffffffffffffffffffffffffffffffffffffffff1673ffffffffffffffffffffffffffffffffffffffff167f8c5be1e5ebec7d5bd14f71427d1e84f3dd0314c0f7b2291e5b200ac8c7c3b92560405160405180910390a45050565b60606010805461089790613266565b80601f01602080910402602001604051908101604052809291908181526020018280546108c390613266565b80156109105780601f106108e557610100808354040283529160200191610910565b820191906000526020600020905b8154815290600101906020018083116108f357829003601f168201915b5050505050905090565b60008054906101000a900473ffffffffffffffffffffffffffffffffffffffff1673ffffffffffffffffffffffffffffffffffffffff163373ffffffffffffffffffffffffffffffffffffffff16146109a8576040517f08c379a000000000000000000000000000000000000000000000000000000000815260040161099f9061330a565b60405180910390fd5b600060149054906101000a900460ff16151581151514156109fe576040517f08c379a00000000000000000000000000000000000000000000000000000000081526004016109f590613376565b60405180910390fd5b80600060146101000a81548160ff021916908315150217905550600115158115151415610a61577f62e78cea01bee320cd4e420270b5ea74000d11b0c9f74754ebdbfc544b05a25833604051610a54919061280f565b60405180910390a1610a99565b7f5db9ee0a495bf2e6ff9c91a7834c1ba4fdd244a5e8aa4e537bd38aeae4b073aa33604051610a90919061280f565b60405180910390a15b50565b6060600f8054610aab90613266565b80601f0160208091040260200160405190810160405280929190818152602001828054610ad790613266565b8015610b245780601f10610af957610100808354040283529160200191610b24565b820191906000526020600020905b815481529060010190602001808311610b0757829003601f168201915b5050505050905090565b6000600880549050905090565b610b453382611607565b610b4e57600080fd5b610b5983838361169c565b505050565b610bb68282600067ffffffffffffffff811115610b7e57610b7d612a67565b5b6040519080825280601f01601f191660200182016040528015610bb05781602001600182028036833780820191505090505b50610c34565b5050565b6000610bc583610f4a565b8210610bd057600080fd5b600660008473ffffffffffffffffffffffffffffffffffffffff1673ffffffffffffffffffffffffffffffffffffffff1681526020019081526020016000208281548110610c2157610c20613396565b5b9060005260206000200154905092915050565b505050565b60003373ffffffffffffffffffffffffffffffffffffffff16610c5a610ced565b73ffffffffffffffffffffffffffffffffffffffff1614610cb0576040517f08c379a0000000000000000000000000000000000000000000000000000000008152600401610ca790613437565b60405180910390fd5b610cba83836116c0565b610cc3826116e1565b6001905092915050565b610ce883838360405180602001604052806000815250611282565b505050565b60008060009054906101000a900473ffffffffffffffffffffffffffffffffffffffff16905090565b601460009054906101000a900473ffffffffffffffffffffffffffffffffffffffff1681565b6000610d46610b2e565b8210610d5157600080fd5b60088281548110610d6557610d64613396565b5b90600052602060002001549050919050565b60006002600083815260200190815260200160002060009054906101000a900473ffffffffffffffffffffffffffffffffffffffff169050919050565b60008086868686604051602001610dce9493929190613600565b6040516020818303038152906040528051906020012090506000601560008381526020019081526020016000206002015414610e3f576040517f08c379a0000000000000000000000000000000000000000000000000000000008152600401610e369061369a565b60405180910390fd5b601460009054906101000a900473ffffffffffffffffffffffffffffffffffffffff1673ffffffffffffffffffffffffffffffffffffffff1663621e9ec0888888886040518563ffffffff1660e01b8152600401610ea0949392919061381f565b602060405180830381865afa158015610ebd573d6000803e3d6000fd5b505050506040513d601f19601f82011682018060405250810190610ee1919061387b565b610f20576040517f08c379a0000000000000000000000000000000000000000000000000000000008152600401610f17906138f4565b60405180910390fd5b610f2e8333898989896110dd565b6000610f3a3385610c39565b9050809250505095945050505050565b6000610f93600460008473ffffffffffffffffffffffffffffffffffffffff1673ffffffffffffffffffffffffffffffffffffffff1681526020019081526020016000206117f5565b9050919050565b6000601380549050905090565b3373ffffffffffffffffffffffffffffffffffffffff168273ffffffffffffffffffffffffffffffffffffffff161415610fe057600080fd5b80600560003373ffffffffffffffffffffffffffffffffffffffff1673ffffffffffffffffffffffffffffffffffffffff16815260200190815260200160002060008473ffffffffffffffffffffffffffffffffffffffff1673ffffffffffffffffffffffffffffffffffffffff16815260200190815260200160002060006101000a81548160ff0219169083151502179055508173ffffffffffffffffffffffffffffffffffffffff163373ffffffffffffffffffffffffffffffffffffffff167f17307eab39ab6107e8899845ad3d59bd9653f200f220920489ca2b5937696c31836040516110d19190612750565b60405180910390a35050565b600060405180606001604052808881526020018773ffffffffffffffffffffffffffffffffffffffff1681526020016001815250905060008585858560405160200161112c9493929190613600565b60405160208183030381529060405280519060200120905081601560008381526020019081526020016000206000820151816000015560208201518160010160006101000a81548173ffffffffffffffffffffffffffffffffffffffff021916908373ffffffffffffffffffffffffffffffffffffffff1602179055506040820151816002015590505060138290806001815401808255809150506001900390600052602060002090600302016000909190919091506000820151816000015560208201518160010160006101000a81548173ffffffffffffffffffffffffffffffffffffffff021916908373ffffffffffffffffffffffffffffffffffffffff1602179055506040820151816002015550507f4eb6cf99c4a7d16c60503cd7a765dcd26857babdf265322b1115b55b502d261f8789604051611270929190613914565b60405180910390a15050505050505050565b61128d848484610b3b565b61129984848484611803565b6112a257600080fd5b50505050565b6060601180546112b790613266565b80601f01602080910402602001604051908101604052809291908181526020018280546112e390613266565b80156113305780601f1061130557610100808354040283529160200191611330565b820191906000526020600020905b81548152906001019060200180831161131357829003601f168201915b5050505050905090565b60606113458261190b565b61134e57600080fd5b60126000838152602001908152602001600020805461136c90613266565b80601f016020809104026020016040519081016040528092919081815260200182805461139890613266565b80156113e55780601f106113ba576101008083540402835291602001916113e5565b820191906000526020600020905b8154815290600101906020018083116113c857829003601f168201915b50505050509050919050565b6000600560008473ffffffffffffffffffffffffffffffffffffffff1673ffffffffffffffffffffffffffffffffffffffff16815260200190815260200160002060008373ffffffffffffffffffffffffffffffffffffffff1673ffffffffffffffffffffffffffffffffffffffff16815260200190815260200160002060009054906101000a900460ff16905092915050565b60008054906101000a900473ffffffffffffffffffffffffffffffffffffffff1673ffffffffffffffffffffffffffffffffffffffff163373ffffffffffffffffffffffffffffffffffffffff1614611513576040517f08c379a000000000000000000000000000000000000000000000000000000000815260040161150a9061330a565b60405180910390fd5b80600015156115218261197d565b151514611563576040517f08c379a000000000000000000000000000000000000000000000000000000000815260040161155a90613989565b60405180910390fd5b60008060009054906101000a900473ffffffffffffffffffffffffffffffffffffffff169050826000806101000a81548173ffffffffffffffffffffffffffffffffffffffff021916908373ffffffffffffffffffffffffffffffffffffffff1602179055507f552e1d0137dc25d1761edf3f5962e592a2541bcb47d40254559f1bc1ad0083bf81846040516115fa9291906139a9565b60405180910390a1505050565b60008061161383610d77565b90508073ffffffffffffffffffffffffffffffffffffffff168473ffffffffffffffffffffffffffffffffffffffff16148061168257508373ffffffffffffffffffffffffffffffffffffffff1661166a846105e0565b73ffffffffffffffffffffffffffffffffffffffff16145b80611693575061169281856113f1565b5b91505092915050565b6116a78383836119a0565b6116b18382611bfa565b6116bb8282611db1565b505050565b6116ca8282611e75565b6116d48282611db1565b6116dd81611fb6565b5050565b6116ea8161190b565b611729576040517f08c379a000000000000000000000000000000000000000000000000000000000815260040161172090613a1e565b60405180910390fd5b600061173482611fff565b90506117ca6011805461174690613266565b80601f016020809104026020016040519081016040528092919081815260200182805461177290613266565b80156117bf5780601f10611794576101008083540402835291602001916117bf565b820191906000526020600020905b8154815290600101906020018083116117a257829003601f168201915b505050505082612166565b6012600084815260200190815260200160002090805190602001906117f09291906125f9565b505050565b600081600001549050919050565b60006118248473ffffffffffffffffffffffffffffffffffffffff1661197d565b6118315760019050611903565b60008473ffffffffffffffffffffffffffffffffffffffff1663150b7a02338887876040518563ffffffff1660e01b81526004016118729493929190613a93565b6020604051808303816000875af1158015611891573d6000803e3d6000fd5b505050506040513d601f19601f820116820180604052508101906118b59190613af4565b905063150b7a0260e01b7bffffffffffffffffffffffffffffffffffffffffffffffffffffffff1916817bffffffffffffffffffffffffffffffffffffffffffffffffffffffff1916149150505b949350505050565b6000806002600084815260200190815260200160002060009054906101000a900473ffffffffffffffffffffffffffffffffffffffff169050600073ffffffffffffffffffffffffffffffffffffffff168173ffffffffffffffffffffffffffffffffffffffff161415915050919050565b6000808273ffffffffffffffffffffffffffffffffffffffff163b119050919050565b8273ffffffffffffffffffffffffffffffffffffffff166002600083815260200190815260200160002060009054906101000a900473ffffffffffffffffffffffffffffffffffffffff1673ffffffffffffffffffffffffffffffffffffffff1614611a41576040517f08c379a0000000000000000000000000000000000000000000000000000000008152600401611a3890613b6d565b60405180910390fd5b600073ffffffffffffffffffffffffffffffffffffffff168273ffffffffffffffffffffffffffffffffffffffff161415611ab1576040517f08c379a0000000000000000000000000000000000000000000000000000000008152600401611aa890613bd9565b60405180910390fd5b611aba816121aa565b611b01600460008473ffffffffffffffffffffffffffffffffffffffff1673ffffffffffffffffffffffffffffffffffffffff168152602001908152602001600020612268565b611b48600460008573ffffffffffffffffffffffffffffffffffffffff1673ffffffffffffffffffffffffffffffffffffffff168152602001908152602001600020612268565b816002600083815260200190815260200160002060006101000a81548173ffffffffffffffffffffffffffffffffffffffff021916908373ffffffffffffffffffffffffffffffffffffffff160217905550808273ffffffffffffffffffffffffffffffffffffffff168473ffffffffffffffffffffffffffffffffffffffff167fddf252ad1be2c89b69c2b068fc378daa952ba7f163c4a11628f55a4df523b3ef60405160405180910390a4505050565b60006001600660008573ffffffffffffffffffffffffffffffffffffffff1673ffffffffffffffffffffffffffffffffffffffff16815260200190815260200160002080549050611c4b9190613c28565b9050600060076000848152602001908152602001600020549050818114611d46576000600660008673ffffffffffffffffffffffffffffffffffffffff1673ffffffffffffffffffffffffffffffffffffffff1681526020019081526020016000208381548110611cbf57611cbe613396565b5b9060005260206000200154905080600660008773ffffffffffffffffffffffffffffffffffffffff1673ffffffffffffffffffffffffffffffffffffffff1681526020019081526020016000208381548110611d1e57611d1d613396565b5b9060005260206000200181905550816007600083815260200190815260200160002081905550505b600660008573ffffffffffffffffffffffffffffffffffffffff1673ffffffffffffffffffffffffffffffffffffffff168152602001908152602001600020805480611d9557611d94613c5c565b5b6001900381819060005260206000200160009055905550505050565b600660008373ffffffffffffffffffffffffffffffffffffffff1673ffffffffffffffffffffffffffffffffffffffff168152602001908152602001600020805490506007600083815260200190815260200160002081905550600660008373ffffffffffffffffffffffffffffffffffffffff1673ffffffffffffffffffffffffffffffffffffffff1681526020019081526020016000208190806001815401808255809150506001900390600052602060002001600090919091909150555050565b611e7e8161190b565b15611ebe576040517f08c379a0000000000000000000000000000000000000000000000000000000008152600401611eb590613cd7565b60405180910390fd5b816002600083815260200190815260200160002060006101000a81548173ffffffffffffffffffffffffffffffffffffffff021916908373ffffffffffffffffffffffffffffffffffffffff160217905550611f57600460008473ffffffffffffffffffffffffffffffffffffffff1673ffffffffffffffffffffffffffffffffffffffff168152602001908152602001600020612268565b808273ffffffffffffffffffffffffffffffffffffffff163373ffffffffffffffffffffffffffffffffffffffff167fddf252ad1be2c89b69c2b068fc378daa952ba7f163c4a11628f55a4df523b3ef60405160405180910390a45050565b6008805490506009600083815260200190815260200160002081905550600881908060018154018082558091505060019003906000526020600020016000909190919091505550565b60606000821415612047576040518060400160405280600181526020017f30000000000000000000000000000000000000000000000000000000000000008152509050612161565b600082905060005b6000821461207957808061206290613cf7565b915050600a826120729190613d6f565b915061204f565b60008167ffffffffffffffff81111561209557612094612a67565b5b6040519080825280601f01601f1916602001820160405280156120c75781602001600182028036833780820191505090505b50905060006001836120d99190613c28565b90505b6000861461215957600a86816120f5576120f4613d40565b5b0660300160f81b8282806001900393508151811061211657612115613396565b5b60200101907effffffffffffffffffffffffffffffffffffffffffffffffffffffffffffff1916908160001a905350600a866121529190613d6f565b95506120dc565b819450505050505b919050565b60606121a2838360405180602001604052806000815250604051806020016040528060008152506040518060200160405280600081525061227e565b905092915050565b600073ffffffffffffffffffffffffffffffffffffffff166003600083815260200190815260200160002060009054906101000a900473ffffffffffffffffffffffffffffffffffffffff1673ffffffffffffffffffffffffffffffffffffffff16146122655760006003600083815260200190815260200160002060006101000a81548173ffffffffffffffffffffffffffffffffffffffff021916908373ffffffffffffffffffffffffffffffffffffffff1602179055505b50565b6001816000016000828254019250508190555050565b6060600086905060008690506000869050600086905060008690506000815183518551875189516122af9190613da0565b6122b99190613da0565b6122c39190613da0565b6122cd9190613da0565b67ffffffffffffffff8111156122e6576122e5612a67565b5b6040519080825280601f01601f1916602001820160405280156123185781602001600182028036833780820191505090505b5090506000819050600080600090505b88518110156123b05788818151811061234457612343613396565b5b602001015160f81c60f81b83838061235b90613cf7565b94508151811061236e5761236d613396565b5b60200101907effffffffffffffffffffffffffffffffffffffffffffffffffffffffffffff1916908160001a90535080806123a890613cf7565b915050612328565b600090505b875181101561243d578781815181106123d1576123d0613396565b5b602001015160f81c60f81b8383806123e890613cf7565b9450815181106123fb576123fa613396565b5b60200101907effffffffffffffffffffffffffffffffffffffffffffffffffffffffffffff1916908160001a905350808061243590613cf7565b9150506123b5565b600090505b86518110156124ca5786818151811061245e5761245d613396565b5b602001015160f81c60f81b83838061247590613cf7565b94508151811061248857612487613396565b5b60200101907effffffffffffffffffffffffffffffffffffffffffffffffffffffffffffff1916908160001a90535080806124c290613cf7565b915050612442565b600090505b8551811015612557578581815181106124eb576124ea613396565b5b602001015160f81c60f81b83838061250290613cf7565b94508151811061251557612514613396565b5b60200101907effffffffffffffffffffffffffffffffffffffffffffffffffffffffffffff1916908160001a905350808061254f90613cf7565b9150506124cf565b600090505b84518110156125e45784818151811061257857612577613396565b5b602001015160f81c60f81b83838061258f90613cf7565b9450815181106125a2576125a1613396565b5b60200101907effffffffffffffffffffffffffffffffffffffffffffffffffffffffffffff1916908160001a90535080806125dc90613cf7565b91505061255c565b82995050505050505050505095945050505050565b82805461260590613266565b90600052602060002090601f016020900481019282612627576000855561266e565b82601f1061264057805160ff191683800117855561266e565b8280016001018555821561266e579182015b8281111561266d578251825591602001919060010190612652565b5b50905061267b919061267f565b5090565b5b80821115612698576000816000905550600101612680565b5090565b6000604051905090565b600080fd5b600080fd5b60007fffffffff0000000000000000000000000000000000000000000000000000000082169050919050565b6126e5816126b0565b81146126f057600080fd5b50565b600081359050612702816126dc565b92915050565b60006020828403121561271e5761271d6126a6565b5b600061272c848285016126f3565b91505092915050565b60008115159050919050565b61274a81612735565b82525050565b60006020820190506127656000830184612741565b92915050565b6000819050919050565b61277e8161276b565b811461278957600080fd5b50565b60008135905061279b81612775565b92915050565b6000602082840312156127b7576127b66126a6565b5b60006127c58482850161278c565b91505092915050565b600073ffffffffffffffffffffffffffffffffffffffff82169050919050565b60006127f9826127ce565b9050919050565b612809816127ee565b82525050565b60006020820190506128246000830184612800565b92915050565b612833816127ee565b811461283e57600080fd5b50565b6000813590506128508161282a565b92915050565b6000806040838503121561286d5761286c6126a6565b5b600061287b85828601612841565b925050602061288c8582860161278c565b9150509250929050565b600081519050919050565b600082825260208201905092915050565b60005b838110156128d05780820151818401526020810190506128b5565b838111156128df576000848401525b50505050565b6000601f19601f8301169050919050565b600061290182612896565b61290b81856128a1565b935061291b8185602086016128b2565b612924816128e5565b840191505092915050565b6000602082019050818103600083015261294981846128f6565b905092915050565b61295a81612735565b811461296557600080fd5b50565b60008135905061297781612951565b92915050565b600060208284031215612993576129926126a6565b5b60006129a184828501612968565b91505092915050565b6129b38161276b565b82525050565b60006020820190506129ce60008301846129aa565b92915050565b6000806000606084860312156129ed576129ec6126a6565b5b60006129fb86828701612841565b9350506020612a0c86828701612841565b9250506040612a1d8682870161278c565b9150509250925092565b6000819050919050565b612a3a81612a27565b8114612a4557600080fd5b50565b600081359050612a5781612a31565b92915050565b600080fd5b600080fd5b7f4e487b7100000000000000000000000000000000000000000000000000000000600052604160045260246000fd5b612a9f826128e5565b810181811067ffffffffffffffff82111715612abe57612abd612a67565b5b80604052505050565b6000612ad161269c565b9050612add8282612a96565b919050565b600067ffffffffffffffff821115612afd57612afc612a67565b5b612b06826128e5565b9050602081019050919050565b82818337600083830152505050565b6000612b35612b3084612ae2565b612ac7565b905082815260208101848484011115612b5157612b50612a62565b5b612b5c848285612b13565b509392505050565b600082601f830112612b7957612b78612a5d565b5b8135612b89848260208601612b22565b91505092915050565b60008060408385031215612ba957612ba86126a6565b5b6000612bb785828601612a48565b925050602083013567ffffffffffffffff811115612bd857612bd76126ab565b5b612be485828601612b64565b9150509250929050565b600067ffffffffffffffff821115612c0957612c08612a67565b5b612c12826128e5565b9050602081019050919050565b6000612c32612c2d84612bee565b612ac7565b905082815260208101848484011115612c4e57612c4d612a62565b5b612c59848285612b13565b509392505050565b600082601f830112612c7657612c75612a5d565b5b8135612c86848260208601612c1f565b91505092915050565b600080600060608486031215612ca857612ca76126a6565b5b6000612cb686828701612a48565b935050602084013567ffffffffffffffff811115612cd757612cd66126ab565b5b612ce386828701612b64565b925050604084013567ffffffffffffffff811115612d0457612d036126ab565b5b612d1086828701612c61565b9150509250925092565b6000819050919050565b6000612d3f612d3a612d35846127ce565b612d1a565b6127ce565b9050919050565b6000612d5182612d24565b9050919050565b6000612d6382612d46565b9050919050565b612d7381612d58565b82525050565b6000602082019050612d8e6000830184612d6a565b92915050565b600067ffffffffffffffff821115612daf57612dae612a67565b5b602082029050919050565b600080fd5b6000612dd2612dcd84612d94565b612ac7565b90508060208402830185811115612dec57612deb612dba565b5b835b81811015612e155780612e01888261278c565b845260208401935050602081019050612dee565b5050509392505050565b600082601f830112612e3457612e33612a5d565b5b6002612e41848285612dbf565b91505092915050565b600067ffffffffffffffff821115612e6557612e64612a67565b5b602082029050919050565b6000612e83612e7e84612e4a565b612ac7565b90508060408402830185811115612e9d57612e9c612dba565b5b835b81811015612ec65780612eb28882612e1f565b845260208401935050604081019050612e9f565b5050509392505050565b600082601f830112612ee557612ee4612a5d565b5b6002612ef2848285612e70565b91505092915050565b60008060008060006101608688031215612f1857612f176126a6565b5b6000612f2688828901612e1f565b9550506040612f3788828901612ed0565b94505060c0612f4888828901612e1f565b935050610100612f5a88828901612e1f565b925050610140612f6c8882890161278c565b9150509295509295909350565b600060208284031215612f8f57612f8e6126a6565b5b6000612f9d84828501612841565b91505092915050565b60008060408385031215612fbd57612fbc6126a6565b5b6000612fcb85828601612841565b9250506020612fdc85828601612968565b9150509250929050565b6000806000806000806101808789031215613004576130036126a6565b5b600061301289828a0161278c565b965050602061302389828a01612841565b955050604061303489828a01612e1f565b945050608061304589828a01612ed0565b93505061010061305789828a01612e1f565b92505061014061306989828a01612e1f565b9150509295509295509295565b600080600080608085870312156130905761308f6126a6565b5b600061309e87828801612841565b94505060206130af87828801612841565b93505060406130c08782880161278c565b925050606085013567ffffffffffffffff8111156130e1576130e06126ab565b5b6130ed87828801612c61565b91505092959194509250565b600080604083850312156131105761310f6126a6565b5b600061311e85828601612841565b925050602061312f85828601612841565b9150509250929050565b7f5468697320697320616c726561647920616e206f776e6572206f66207468697360008201527f20746f6b656e0000000000000000000000000000000000000000000000000000602082015250565b60006131956026836128a1565b91506131a082613139565b604082019050919050565b600060208201905081810360008301526131c481613188565b9050919050565b7f4e6f7420617070726f7665642121000000000000000000000000000000000000600082015250565b6000613201600e836128a1565b915061320c826131cb565b602082019050919050565b60006020820190508181036000830152613230816131f4565b9050919050565b7f4e487b7100000000000000000000000000000000000000000000000000000000600052602260045260246000fd5b6000600282049050600182168061327e57607f821691505b6020821081141561329257613291613237565b5b50919050565b7f4f6e6c7920436f6e7472616374206f776e65722061726520616c6c6f7765642060008201527f746f20757365207468697320636f6e7472616374000000000000000000000000602082015250565b60006132f46034836128a1565b91506132ff82613298565b604082019050919050565b60006020820190508181036000830152613323816132e7565b9050919050565b7f436f6e747261637420697320616c726561647920706175736564000000000000600082015250565b6000613360601a836128a1565b915061336b8261332a565b602082019050919050565b6000602082019050818103600083015261338f81613353565b9050919050565b7f4e487b7100000000000000000000000000000000000000000000000000000000600052603260045260246000fd5b7f46756e6374696f6e2073686f756c64206f6e6c792062652063616c6c6564206260008201527f7920746865206f776e6572000000000000000000000000000000000000000000602082015250565b6000613421602b836128a1565b915061342c826133c5565b604082019050919050565b6000602082019050818103600083015261345081613414565b9050919050565b600060029050919050565b600081905092915050565b6000819050919050565b6134808161276b565b82525050565b60006134928383613477565b60208301905092915050565b6000602082019050919050565b6134b481613457565b6134be8184613462565b92506134c98261346d565b8060005b838110156134fa5781516134e18782613486565b96506134ec8361349e565b9250506001810190506134cd565b505050505050565b600060029050919050565b600081905092915050565b6000819050919050565b600081905092915050565b61353681613457565b6135408184613522565b925061354b8261346d565b8060005b8381101561357c5781516135638782613486565b965061356e8361349e565b92505060018101905061354f565b505050505050565b6000613590838361352d565b60408301905092915050565b6000602082019050919050565b6135b281613502565b6135bc818461350d565b92506135c782613518565b8060005b838110156135f85781516135df8782613584565b96506135ea8361359c565b9250506001810190506135cb565b505050505050565b600061360c82876134ab565b60408201915061361c82866135a9565b60808201915061362c82856134ab565b60408201915061363c82846134ab565b60408201915081905095945050505050565b7f536f6c7574696f6e207761732075736564000000000000000000000000000000600082015250565b60006136846011836128a1565b915061368f8261364e565b602082019050919050565b600060208201905081810360008301526136b381613677565b9050919050565b600081905092915050565b6136ce8161276b565b82525050565b60006136e083836136c5565b60208301905092915050565b6136f581613457565b6136ff81846136ba565b925061370a8261346d565b8060005b8381101561373b57815161372287826136d4565b965061372d8361349e565b92505060018101905061370e565b505050505050565b600081905092915050565b600081905092915050565b61376281613457565b61376c818461374e565b92506137778261346d565b8060005b838110156137a857815161378f87826136d4565b965061379a8361349e565b92505060018101905061377b565b505050505050565b60006137bc8383613759565b60408301905092915050565b6137d181613502565b6137db8184613743565b92506137e682613518565b8060005b838110156138175781516137fe87826137b0565b96506138098361359c565b9250506001810190506137ea565b505050505050565b60006101408201905061383560008301876136ec565b61384260408301866137c8565b61384f60c08301856136ec565b61385d6101008301846136ec565b95945050505050565b60008151905061387581612951565b92915050565b600060208284031215613891576138906126a6565b5b600061389f84828501613866565b91505092915050565b7f496e636f727265637420736f6c7574696f6e0000000000000000000000000000600082015250565b60006138de6012836128a1565b91506138e9826138a8565b602082019050919050565b6000602082019050818103600083015261390d816138d1565b9050919050565b60006040820190506139296000830185612800565b61393660208301846129aa565b9392505050565b7f616464726573732073686f756c642062652061207265616c2061646472657373600082015250565b60006139736020836128a1565b915061397e8261393d565b602082019050919050565b600060208201905081810360008301526139a281613966565b9050919050565b60006040820190506139be6000830185612800565b6139cb6020830184612800565b9392505050565b7f546f6b656e2070726f766964656420646f6573206e6f74206578697374000000600082015250565b6000613a08601d836128a1565b9150613a13826139d2565b602082019050919050565b60006020820190508181036000830152613a37816139fb565b9050919050565b600081519050919050565b600082825260208201905092915050565b6000613a6582613a3e565b613a6f8185613a49565b9350613a7f8185602086016128b2565b613a88816128e5565b840191505092915050565b6000608082019050613aa86000830187612800565b613ab56020830186612800565b613ac260408301856129aa565b8181036060830152613ad48184613a5a565b905095945050505050565b600081519050613aee816126dc565b92915050565b600060208284031215613b0a57613b096126a6565b5b6000613b1884828501613adf565b91505092915050565b7f46726f6d2061646472657373206973206e6f7420746865206f776e6572000000600082015250565b6000613b57601d836128a1565b9150613b6282613b21565b602082019050919050565b60006020820190508181036000830152613b8681613b4a565b9050919050565b7f496e76616c696420616464726573730000000000000000000000000000000000600082015250565b6000613bc3600f836128a1565b9150613bce82613b8d565b602082019050919050565b60006020820190508181036000830152613bf281613bb6565b9050919050565b7f4e487b7100000000000000000000000000000000000000000000000000000000600052601160045260246000fd5b6000613c338261276b565b9150613c3e8361276b565b925082821015613c5157613c50613bf9565b5b828203905092915050565b7f4e487b7100000000000000000000000000000000000000000000000000000000600052603160045260246000fd5b7f54686520746f6b656e20494420616c7265616479206578697374730000000000600082015250565b6000613cc1601b836128a1565b9150613ccc82613c8b565b602082019050919050565b60006020820190508181036000830152613cf081613cb4565b9050919050565b6000613d028261276b565b91507fffffffffffffffffffffffffffffffffffffffffffffffffffffffffffffffff821415613d3557613d34613bf9565b5b600182019050919050565b7f4e487b7100000000000000000000000000000000000000000000000000000000600052601260045260246000fd5b6000613d7a8261276b565b9150613d858361276b565b925082613d9557613d94613d40565b5b828204905092915050565b6000613dab8261276b565b9150613db68361276b565b9250827fffffffffffffffffffffffffffffffffffffffffffffffffffffffffffffffff03821115613deb57613dea613bf9565b5b82820190509291505056fea26469706673582212208bd3d989c203268c9a2b25cfc8b16852e9215140d3f3bdb804620aa4808a31f664736f6c634300080c003368747470733a2f2f73332d75732d776573742d322e616d617a6f6e6177732e636f6d2f756461636974792d626c6f636b636861696e2f63617073746f6e652f",
  "immutableReferences": {},
  "source": "// SPDX-License-Identifier: MIT\npragma solidity ^0.8.12;\n\nimport \"./verifier.sol\"; // generated by the zokrates\nimport \"./ERC721Mintable.sol\";\n\n// TODO define a contract call to the zokrates generated solidity contract <Verifier> or <renamedVerifier>\n\ncontract SquareVerifier is Verifier {}\n\n// TODO define another contract named SolnSquareVerifier that inherits from your ERC721Mintable class\ncontract SolnSquareVerifier is CustomERC721Token {\n    // TODO define a solutions struct that can hold an index & an address\n    struct solutions {\n        uint256 index;\n        address addressSol;\n        uint256 solutionProvided;\n    }\n\n    // TODO define an array of the above struct\n    solutions[] solutionsArray;\n\n    // verifier squareVerifier\n    SquareVerifier public squareVerifier;\n\n    // TODO define a mapping to store unique solutions submitted\n    mapping(bytes32 => solutions) uniqueSolutions;\n\n    // TODO Create an event to emit when a solution is added\n    event solutionAdded(address from, uint256 index);\n\n\n    constructor(address verifierAddress){\n        squareVerifier = SquareVerifier(verifierAddress);\n    }\n\n    // TODO Create a function to add the solutions to the array and emit the event\n    function addSolution(\n        uint256 index1,\n        address address1,\n        uint256[2] memory A,\n        uint256[2][2] memory B,\n        uint256[2] memory C,\n        uint256[2] memory INPUT\n    ) public {\n        solutions memory solution1 = solutions({\n            index: index1,\n            addressSol: address1,\n            solutionProvided: 1\n        });\n\n        bytes32 uniqueKey = keccak256(abi.encodePacked(A,B,C, INPUT));\n        uniqueSolutions[uniqueKey] = solution1;\n        solutionsArray.push(solution1);\n        emit solutionAdded(address1, index1);\n    }\n\n    function getSolutionCount() public view returns (uint256) {\n        return solutionsArray.length;\n    }\n\n    // TODO Create a function to mint new NFT only after the solution has been verified\n    //  - make sure the solution is unique (has not been used before)\n    //  - make sure you handle metadata as well as tokenSuplly\n    function mintToken(\n        uint256[2] memory A,\n        uint256[2][2] memory B,\n        uint256[2] memory C,\n        uint256[2] memory INPUT,\n        uint256 ID\n    ) public returns (bool) {\n        bytes32 uniquenessCheck = keccak256(abi.encodePacked(A, B, C, INPUT));\n        require(uniqueSolutions[uniquenessCheck].solutionProvided == 0, \"Solution was used\");\n        require(squareVerifier.verifyTx(A, B, C, INPUT), \"Incorrect solution\");\n\n        addSolution(ID, msg.sender, A, B, C, INPUT);\n        bool check = mint(msg.sender, ID);\n        return check;\n    }\n}\n",
  "sourcePath": "/home/frank/Desktop/Projects/Blockchain-Capstone/eth-contracts/contracts/SolnSquareVerifier.sol",
  "compiler": {
    "name": "solc",
    "version": "0.8.12+commit.f00d7308.Emscripten.clang"
  },
  "schemaVersion": "3.4.3",
  "updatedAt": "2022-02-27T15:15:30.593Z",
  "networkType": "ethereum",
  "devdoc": {
    "kind": "dev",
    "methods": {
      "isApprovedForAll(address,address)": {
        "details": "Tells whether an operator is approved by a given owner",
        "params": {
          "operator": "operator address which you want to query the approval of",
          "owner": "owner address which you want to query the approval of"
        },
        "returns": {
          "_0": "bool whether the given operator is approved by the given owner"
        }
      },
      "setApprovalForAll(address,bool)": {
        "details": "Sets or unsets the approval of a given operator An operator is allowed to transfer all tokens of the sender on their behalf",
        "params": {
          "approved": "representing the status of the approval to be set",
          "to": "operator address to set the approval"
        }
      },
      "supportsInterface(bytes4)": {
        "details": "implement supportsInterface(bytes4) using a lookup table"
      },
      "tokenByIndex(uint256)": {
        "details": "Gets the token ID at a given index of all the tokens in this contract Reverts if the index is greater or equal to the total number of tokens",
        "params": {
          "index": "uint256 representing the index to be accessed of the tokens list"
        },
        "returns": {
          "_0": "uint256 token ID at the given index of the tokens list"
        }
      },
      "tokenOfOwnerByIndex(address,uint256)": {
        "details": "Gets the token ID at a given index of the tokens list of the requested owner",
        "params": {
          "index": "uint256 representing the index to be accessed of the requested tokens list",
          "owner": "address owning the tokens list to be accessed"
        },
        "returns": {
          "_0": "uint256 token ID at the given index of the tokens list owned by the requested address"
        }
      },
      "totalSupply()": {
        "details": "Gets the total amount of tokens stored by the contract",
        "returns": {
          "_0": "uint256 representing the total amount of tokens"
        }
      }
    },
    "version": 1
  },
  "userdoc": {
    "kind": "user",
    "methods": {},
    "version": 1
  }
}